{
  "_format": "hh-sol-artifact-1",
  "contractName": "SportsManagerStreamFactory",
  "sourceName": "contracts/stream/SportsManagerStreamFactory.sol",
  "abi": [
    {
      "inputs": [],
      "stateMutability": "nonpayable",
      "type": "constructor"
    },
    {
      "anonymous": false,
      "inputs": [
        {
          "indexed": true,
          "internalType": "address",
          "name": "owner",
          "type": "address"
        },
        {
          "indexed": true,
          "internalType": "address",
          "name": "group",
          "type": "address"
        },
        {
          "indexed": false,
          "internalType": "string",
          "name": "title",
          "type": "string"
        }
      ],
      "name": "ContractDeployed",
      "type": "event"
    },
    {
      "inputs": [
        {
          "internalType": "string",
          "name": "title",
          "type": "string"
        },
        {
          "components": [
            {
              "internalType": "address",
              "name": "account",
              "type": "address"
            },
            {
              "internalType": "uint32",
              "name": "value",
              "type": "uint32"
            },
            {
              "internalType": "uint32",
              "name": "total",
              "type": "uint32"
            }
          ],
          "internalType": "struct SportsManagerStream.Member[]",
          "name": "members",
          "type": "tuple[]"
        }
      ],
      "name": "genesis",
      "outputs": [
        {
          "internalType": "address",
          "name": "",
          "type": "address"
        }
      ],
      "stateMutability": "nonpayable",
      "type": "function"
    },
    {
      "inputs": [],
      "name": "implementation",
      "outputs": [
        {
          "internalType": "address",
          "name": "",
          "type": "address"
        }
      ],
      "stateMutability": "view",
      "type": "function"
    }
  ],
  "bytecode": "0x60a060405234801561001057600080fd5b5060405161001d9061004f565b604051809103906000f080158015610039573d6000803e3d6000fd5b5060601b6001600160601b03191660805261005c565b6107d68061050e83390190565b60805160601c61048f61007f60003960008181607c015260a6015261048f6000f3fe608060405234801561001057600080fd5b50600436106100365760003560e01c8063522d300b1461003b5780635c60da1b14610077575b600080fd5b61004e6100493660046102ac565b61009e565b60405173ffffffffffffffffffffffffffffffffffffffff909116815260200160405180910390f35b61004e7f000000000000000000000000000000000000000000000000000000000000000081565b6000806100ca7f00000000000000000000000000000000000000000000000000000000000000006101c6565b6040517f804e1c08000000000000000000000000000000000000000000000000000000008152909150819073ffffffffffffffffffffffffffffffffffffffff82169063804e1c08906101239088908890600401610371565b600060405180830381600087803b15801561013d57600080fd5b505af1158015610151573d6000803e3d6000fd5b505050508173ffffffffffffffffffffffffffffffffffffffff163373ffffffffffffffffffffffffffffffffffffffff167fe384b845ebbdba966087d610bc474cdd194ce36c9eab7f4ee94dc862f550842389896040516101b492919061040c565b60405180910390a35095945050505050565b60006040517f3d602d80600a3d3981f3363d3d373d3d3d363d7300000000000000000000000081528260601b60148201527f5af43d82803e903d91602b57fd5bf3000000000000000000000000000000000060288201526037816000f091505073ffffffffffffffffffffffffffffffffffffffff81166102a7576040517f08c379a000000000000000000000000000000000000000000000000000000000815260206004820152601660248201527f455243313136373a20637265617465206661696c656400000000000000000000604482015260640160405180910390fd5b919050565b600080600080604085870312156102c257600080fd5b843567ffffffffffffffff808211156102da57600080fd5b818701915087601f8301126102ee57600080fd5b8135818111156102fd57600080fd5b88602082850101111561030f57600080fd5b60209283019650945090860135908082111561032a57600080fd5b818701915087601f83011261033e57600080fd5b81358181111561034d57600080fd5b88602060608302850101111561036257600080fd5b95989497505060200194505050565b6020808252818101839052600090604080840186845b878110156103ff57813573ffffffffffffffffffffffffffffffffffffffff81168082146103b457600080fd5b8452508185013563ffffffff8082168083146103cf57600080fd5b8588015283860135915081168082146103e757600080fd5b84860152506060928301929190910190600101610387565b5090979650505050505050565b60208152816020820152818360408301376000818301604090810191909152601f9092017fffffffffffffffffffffffffffffffffffffffffffffffffffffffffffffffe016010191905056fea26469706673582212206885e97f7bbce045f793fff350c72ac7502fa632ccf379d33cc82ad67196d00e64736f6c63430008060033608060405234801561001057600080fd5b506107b6806100206000396000f3fe60806040526004361061002d5760003560e01c8063804e1c081461017c578063bdd4d18d1461019e57600080fd5b36610177576001546100a0576040517f08c379a000000000000000000000000000000000000000000000000000000000815260206004820152600160248201527f310000000000000000000000000000000000000000000000000000000000000060448201526064015b60405180910390fd5b60005b600154811015610174576000600182815481106100c2576100c2610613565b600091825260209182902060408051606081018252929091015473ffffffffffffffffffffffffffffffffffffffff811680845263ffffffff7401000000000000000000000000000000000000000083048116958501869052780100000000000000000000000000000000000000000000000090920490911691830182905291935061016192610152903461056e565b61015c9190610533565b6101c9565b508061016c816105ab565b9150506100a3565b50005b600080fd5b34801561018857600080fd5b5061019c610197366004610445565b610213565b005b3480156101aa57600080fd5b506101b361038b565b6040516101c091906104ba565b60405180910390f35b600080600080600085875af190508061020e576040517f90b8ec1800000000000000000000000000000000000000000000000000000000815260040160405180910390fd5b505050565b600054610100900460ff168061022c575060005460ff16155b6102b8576040517f08c379a000000000000000000000000000000000000000000000000000000000815260206004820152602e60248201527f496e697469616c697a61626c653a20636f6e747261637420697320616c72656160448201527f647920696e697469616c697a65640000000000000000000000000000000000006064820152608401610097565b600054610100900460ff161580156102f757600080547fffffffffffffffffffffffffffffffffffffffffffffffffffffffffffff0000166101011790555b60005b8281101561035757600184848381811061031657610316610613565b83546001810185556000948552602090942060609091029290920192919091019050610342828261065e565b5050808061034f906105ab565b9150506102fa565b50801561020e57600080547fffffffffffffffffffffffffffffffffffffffffffffffffffffffffffff00ff169055505050565b60606001805480602002602001604051908101604052809291908181526020016000905b8282101561043c576000848152602090819020604080516060810182529185015473ffffffffffffffffffffffffffffffffffffffff8116835263ffffffff740100000000000000000000000000000000000000008204811684860152780100000000000000000000000000000000000000000000000090910416908201528252600190920191016103af565b50505050905090565b6000806020838503121561045857600080fd5b823567ffffffffffffffff8082111561047057600080fd5b818501915085601f83011261048457600080fd5b81358181111561049357600080fd5b8660206060830285010111156104a857600080fd5b60209290920196919550909350505050565b602080825282518282018190526000919060409081850190868401855b82811015610526578151805173ffffffffffffffffffffffffffffffffffffffff1685528681015163ffffffff90811688870152908601511685850152606090930192908501906001016104d7565b5091979650505050505050565b600082610569577f4e487b7100000000000000000000000000000000000000000000000000000000600052601260045260246000fd5b500490565b6000817fffffffffffffffffffffffffffffffffffffffffffffffffffffffffffffffff04831182151516156105a6576105a66105e4565b500290565b60007fffffffffffffffffffffffffffffffffffffffffffffffffffffffffffffffff8214156105dd576105dd6105e4565b5060010190565b7f4e487b7100000000000000000000000000000000000000000000000000000000600052601160045260246000fd5b7f4e487b7100000000000000000000000000000000000000000000000000000000600052603260045260246000fd5b6000813563ffffffff8116811461065857600080fd5b92915050565b813573ffffffffffffffffffffffffffffffffffffffff811680821461068357600080fd5b82549150807fffffffffffffffffffffffff0000000000000000000000000000000000000000831617835577ffffffff00000000000000000000000000000000000000006106d360208601610642565b60a01b1680827fffffffffffffffff0000000000000000000000000000000000000000000000008516171784557bffffffff00000000000000000000000000000000000000000000000061072960408701610642565b60c01b167fffffffff00000000ffffffffffffffffffffffffffffffffffffffffffffffff83167fffffffff000000000000000000000000000000000000000000000000000000008516178217178455505050505056fea26469706673582212203d407b0694c51753497fe60abd9fa71cb1bb29fe9154db00a45131ce460a3d8664736f6c63430008060033",
  "linkReferences": {},
  "deployedLinkReferences": {}
}