{
  "_format": "hh-sol-artifact-1",
  "contractName": "SportsManagerStreamFactory",
  "sourceName": "contracts/stream/SportsManagerStreamFactory.sol",
  "abi": [
    {
      "inputs": [],
      "stateMutability": "nonpayable",
      "type": "constructor"
    },
    {
      "anonymous": false,
      "inputs": [
        {
          "indexed": true,
          "internalType": "address",
          "name": "owner",
          "type": "address"
        },
        {
          "indexed": true,
          "internalType": "address",
          "name": "group",
          "type": "address"
        },
        {
          "indexed": false,
          "internalType": "string",
          "name": "title",
          "type": "string"
        }
      ],
      "name": "ContractDeployed",
      "type": "event"
    },
    {
      "inputs": [
        {
          "internalType": "string",
          "name": "title",
          "type": "string"
        },
        {
          "components": [
            {
              "internalType": "address",
              "name": "account",
              "type": "address"
            },
            {
              "internalType": "uint32",
              "name": "value",
              "type": "uint32"
            },
            {
              "internalType": "uint32",
              "name": "total",
              "type": "uint32"
            }
          ],
          "internalType": "struct SportsManagerStream.Member[]",
          "name": "members",
          "type": "tuple[]"
        }
      ],
      "name": "genesis",
      "outputs": [
        {
          "internalType": "address",
          "name": "",
          "type": "address"
        }
      ],
      "stateMutability": "nonpayable",
      "type": "function"
    },
    {
      "inputs": [],
      "name": "implementation",
      "outputs": [
        {
          "internalType": "address",
          "name": "",
          "type": "address"
        }
      ],
      "stateMutability": "view",
      "type": "function"
    }
  ],
  "bytecode": "0x60a060405234801561001057600080fd5b5060405161001d9061004f565b604051809103906000f080158015610039573d6000803e3d6000fd5b5060601b6001600160601b03191660805261005c565b61084a8061050e83390190565b60805160601c61048f61007f60003960008181607c015260a6015261048f6000f3fe608060405234801561001057600080fd5b50600436106100365760003560e01c8063522d300b1461003b5780635c60da1b14610077575b600080fd5b61004e6100493660046102ac565b61009e565b60405173ffffffffffffffffffffffffffffffffffffffff909116815260200160405180910390f35b61004e7f000000000000000000000000000000000000000000000000000000000000000081565b6000806100ca7f00000000000000000000000000000000000000000000000000000000000000006101c6565b6040517f804e1c08000000000000000000000000000000000000000000000000000000008152909150819073ffffffffffffffffffffffffffffffffffffffff82169063804e1c08906101239088908890600401610371565b600060405180830381600087803b15801561013d57600080fd5b505af1158015610151573d6000803e3d6000fd5b505050508173ffffffffffffffffffffffffffffffffffffffff163373ffffffffffffffffffffffffffffffffffffffff167fe384b845ebbdba966087d610bc474cdd194ce36c9eab7f4ee94dc862f550842389896040516101b492919061040c565b60405180910390a35095945050505050565b60006040517f3d602d80600a3d3981f3363d3d373d3d3d363d7300000000000000000000000081528260601b60148201527f5af43d82803e903d91602b57fd5bf3000000000000000000000000000000000060288201526037816000f091505073ffffffffffffffffffffffffffffffffffffffff81166102a7576040517f08c379a000000000000000000000000000000000000000000000000000000000815260206004820152601660248201527f455243313136373a20637265617465206661696c656400000000000000000000604482015260640160405180910390fd5b919050565b600080600080604085870312156102c257600080fd5b843567ffffffffffffffff808211156102da57600080fd5b818701915087601f8301126102ee57600080fd5b8135818111156102fd57600080fd5b88602082850101111561030f57600080fd5b60209283019650945090860135908082111561032a57600080fd5b818701915087601f83011261033e57600080fd5b81358181111561034d57600080fd5b88602060608302850101111561036257600080fd5b95989497505060200194505050565b6020808252818101839052600090604080840186845b878110156103ff57813573ffffffffffffffffffffffffffffffffffffffff81168082146103b457600080fd5b8452508185013563ffffffff8082168083146103cf57600080fd5b8588015283860135915081168082146103e757600080fd5b84860152506060928301929190910190600101610387565b5090979650505050505050565b60208152816020820152818360408301376000818301604090810191909152601f9092017fffffffffffffffffffffffffffffffffffffffffffffffffffffffffffffffe016010191905056fea2646970667358221220b95a6a2de0582f86be3dcab5315a3618fffefadcddd03429e7214c301bf13cc964736f6c63430008060033608060405234801561001057600080fd5b5061082a806100206000396000f3fe60806040526004361061002d5760003560e01c8063804e1c081461017c578063bdd4d18d1461019e57600080fd5b36610177576001546100a0576040517f08c379a000000000000000000000000000000000000000000000000000000000815260206004820152600160248201527f310000000000000000000000000000000000000000000000000000000000000060448201526064015b60405180910390fd5b60005b600154811015610174576000600182815481106100c2576100c2610687565b600091825260209182902060408051606081018252929091015473ffffffffffffffffffffffffffffffffffffffff811680845263ffffffff740100000000000000000000000000000000000000008304811695850186905278010000000000000000000000000000000000000000000000009092049091169183018290529193506101619261015290346105e2565b61015c91906105a7565b6101c9565b508061016c8161061f565b9150506100a3565b50005b600080fd5b34801561018857600080fd5b5061019c6101973660046104b9565b610213565b005b3480156101aa57600080fd5b506101b36103ff565b6040516101c0919061052e565b60405180910390f35b600080600080600085875af190508061020e576040517f90b8ec1800000000000000000000000000000000000000000000000000000000815260040160405180910390fd5b505050565b600054610100900460ff16158080156102335750600054600160ff909116105b8061024d5750303b15801561024d575060005460ff166001145b6102d9576040517f08c379a000000000000000000000000000000000000000000000000000000000815260206004820152602e60248201527f496e697469616c697a61626c653a20636f6e747261637420697320616c72656160448201527f647920696e697469616c697a65640000000000000000000000000000000000006064820152608401610097565b600080547fffffffffffffffffffffffffffffffffffffffffffffffffffffffffffffff00166001179055801561033757600080547fffffffffffffffffffffffffffffffffffffffffffffffffffffffffffff00ff166101001790555b60005b8281101561039757600184848381811061035657610356610687565b8354600181018555600094855260209094206060909102929092019291909101905061038282826106d2565b5050808061038f9061061f565b91505061033a565b50801561020e57600080547fffffffffffffffffffffffffffffffffffffffffffffffffffffffffffff00ff169055604051600181527f7f26b83ff96e1f2b6a682f133852f6798a09c465da95921460cefb38474024989060200160405180910390a1505050565b60606001805480602002602001604051908101604052809291908181526020016000905b828210156104b0576000848152602090819020604080516060810182529185015473ffffffffffffffffffffffffffffffffffffffff8116835263ffffffff74010000000000000000000000000000000000000000820481168486015278010000000000000000000000000000000000000000000000009091041690820152825260019092019101610423565b50505050905090565b600080602083850312156104cc57600080fd5b823567ffffffffffffffff808211156104e457600080fd5b818501915085601f8301126104f857600080fd5b81358181111561050757600080fd5b86602060608302850101111561051c57600080fd5b60209290920196919550909350505050565b602080825282518282018190526000919060409081850190868401855b8281101561059a578151805173ffffffffffffffffffffffffffffffffffffffff1685528681015163ffffffff908116888701529086015116858501526060909301929085019060010161054b565b5091979650505050505050565b6000826105dd577f4e487b7100000000000000000000000000000000000000000000000000000000600052601260045260246000fd5b500490565b6000817fffffffffffffffffffffffffffffffffffffffffffffffffffffffffffffffff048311821515161561061a5761061a610658565b500290565b60007fffffffffffffffffffffffffffffffffffffffffffffffffffffffffffffffff82141561065157610651610658565b5060010190565b7f4e487b7100000000000000000000000000000000000000000000000000000000600052601160045260246000fd5b7f4e487b7100000000000000000000000000000000000000000000000000000000600052603260045260246000fd5b6000813563ffffffff811681146106cc57600080fd5b92915050565b813573ffffffffffffffffffffffffffffffffffffffff81168082146106f757600080fd5b82549150807fffffffffffffffffffffffff0000000000000000000000000000000000000000831617835577ffffffff0000000000000000000000000000000000000000610747602086016106b6565b60a01b1680827fffffffffffffffff0000000000000000000000000000000000000000000000008516171784557bffffffff00000000000000000000000000000000000000000000000061079d604087016106b6565b60c01b167fffffffff00000000ffffffffffffffffffffffffffffffffffffffffffffffff83167fffffffff000000000000000000000000000000000000000000000000000000008516178217178455505050505056fea26469706673582212200a7821b7e2cd2453c752bab9f9fd88cb3660650fcf4232e34bbf0d1a3378ef6f64736f6c63430008060033",
  "linkReferences": {},
  "deployedLinkReferences": {}
}