{
  "_format": "hh-sol-artifact-1",
  "contractName": "SportsManagerDescriptor",
  "sourceName": "contracts/SportsManagerDescriptor.sol",
  "abi": [
    {
      "anonymous": false,
      "inputs": [
        {
          "indexed": false,
          "internalType": "string",
          "name": "baseURI",
          "type": "string"
        }
      ],
      "name": "BaseURIUpdated",
      "type": "event"
    },
    {
      "anonymous": false,
      "inputs": [
        {
          "indexed": false,
          "internalType": "bool",
          "name": "enabled",
          "type": "bool"
        }
      ],
      "name": "DataURIToggled",
      "type": "event"
    },
    {
      "anonymous": false,
      "inputs": [
        {
          "indexed": true,
          "internalType": "address",
          "name": "previousOwner",
          "type": "address"
        },
        {
          "indexed": true,
          "internalType": "address",
          "name": "newOwner",
          "type": "address"
        }
      ],
      "name": "OwnershipTransferred",
      "type": "event"
    },
    {
      "anonymous": false,
      "inputs": [],
      "name": "PartsLocked",
      "type": "event"
    },
    {
      "inputs": [
        {
          "internalType": "uint256",
          "name": "",
          "type": "uint256"
        }
      ],
      "name": "accessories",
      "outputs": [
        {
          "internalType": "bytes",
          "name": "",
          "type": "bytes"
        }
      ],
      "stateMutability": "view",
      "type": "function"
    },
    {
      "inputs": [],
      "name": "accessoryCount",
      "outputs": [
        {
          "internalType": "uint256",
          "name": "",
          "type": "uint256"
        }
      ],
      "stateMutability": "view",
      "type": "function"
    },
    {
      "inputs": [
        {
          "internalType": "bytes",
          "name": "_accessory",
          "type": "bytes"
        }
      ],
      "name": "addAccessory",
      "outputs": [],
      "stateMutability": "nonpayable",
      "type": "function"
    },
    {
      "inputs": [
        {
          "internalType": "string",
          "name": "_background",
          "type": "string"
        }
      ],
      "name": "addBackground",
      "outputs": [],
      "stateMutability": "nonpayable",
      "type": "function"
    },
    {
      "inputs": [
        {
          "internalType": "bytes",
          "name": "_body",
          "type": "bytes"
        }
      ],
      "name": "addBody",
      "outputs": [],
      "stateMutability": "nonpayable",
      "type": "function"
    },
    {
      "inputs": [
        {
          "internalType": "uint8",
          "name": "_paletteIndex",
          "type": "uint8"
        },
        {
          "internalType": "string",
          "name": "_color",
          "type": "string"
        }
      ],
      "name": "addColorToPalette",
      "outputs": [],
      "stateMutability": "nonpayable",
      "type": "function"
    },
    {
      "inputs": [
        {
          "internalType": "bytes",
          "name": "_glasses",
          "type": "bytes"
        }
      ],
      "name": "addGlasses",
      "outputs": [],
      "stateMutability": "nonpayable",
      "type": "function"
    },
    {
      "inputs": [
        {
          "internalType": "bytes",
          "name": "_head",
          "type": "bytes"
        }
      ],
      "name": "addHead",
      "outputs": [],
      "stateMutability": "nonpayable",
      "type": "function"
    },
    {
      "inputs": [
        {
          "internalType": "bytes[]",
          "name": "_accessories",
          "type": "bytes[]"
        }
      ],
      "name": "addManyAccessories",
      "outputs": [],
      "stateMutability": "nonpayable",
      "type": "function"
    },
    {
      "inputs": [
        {
          "internalType": "string[]",
          "name": "_backgrounds",
          "type": "string[]"
        }
      ],
      "name": "addManyBackgrounds",
      "outputs": [],
      "stateMutability": "nonpayable",
      "type": "function"
    },
    {
      "inputs": [
        {
          "internalType": "bytes[]",
          "name": "_bodies",
          "type": "bytes[]"
        }
      ],
      "name": "addManyBodies",
      "outputs": [],
      "stateMutability": "nonpayable",
      "type": "function"
    },
    {
      "inputs": [
        {
          "internalType": "uint8",
          "name": "paletteIndex",
          "type": "uint8"
        },
        {
          "internalType": "string[]",
          "name": "newColors",
          "type": "string[]"
        }
      ],
      "name": "addManyColorsToPalette",
      "outputs": [],
      "stateMutability": "nonpayable",
      "type": "function"
    },
    {
      "inputs": [
        {
          "internalType": "bytes[]",
          "name": "_glasses",
          "type": "bytes[]"
        }
      ],
      "name": "addManyGlasses",
      "outputs": [],
      "stateMutability": "nonpayable",
      "type": "function"
    },
    {
      "inputs": [
        {
          "internalType": "bytes[]",
          "name": "_heads",
          "type": "bytes[]"
        }
      ],
      "name": "addManyHeads",
      "outputs": [],
      "stateMutability": "nonpayable",
      "type": "function"
    },
    {
      "inputs": [],
      "name": "arePartsLocked",
      "outputs": [
        {
          "internalType": "bool",
          "name": "",
          "type": "bool"
        }
      ],
      "stateMutability": "view",
      "type": "function"
    },
    {
      "inputs": [],
      "name": "backgroundCount",
      "outputs": [
        {
          "internalType": "uint256",
          "name": "",
          "type": "uint256"
        }
      ],
      "stateMutability": "view",
      "type": "function"
    },
    {
      "inputs": [
        {
          "internalType": "uint256",
          "name": "",
          "type": "uint256"
        }
      ],
      "name": "backgrounds",
      "outputs": [
        {
          "internalType": "string",
          "name": "",
          "type": "string"
        }
      ],
      "stateMutability": "view",
      "type": "function"
    },
    {
      "inputs": [],
      "name": "baseURI",
      "outputs": [
        {
          "internalType": "string",
          "name": "",
          "type": "string"
        }
      ],
      "stateMutability": "view",
      "type": "function"
    },
    {
      "inputs": [
        {
          "internalType": "uint256",
          "name": "",
          "type": "uint256"
        }
      ],
      "name": "bodies",
      "outputs": [
        {
          "internalType": "bytes",
          "name": "",
          "type": "bytes"
        }
      ],
      "stateMutability": "view",
      "type": "function"
    },
    {
      "inputs": [],
      "name": "bodyCount",
      "outputs": [
        {
          "internalType": "uint256",
          "name": "",
          "type": "uint256"
        }
      ],
      "stateMutability": "view",
      "type": "function"
    },
    {
      "inputs": [
        {
          "internalType": "uint256",
          "name": "tokenId",
          "type": "uint256"
        },
        {
          "components": [
            {
              "internalType": "uint48",
              "name": "background",
              "type": "uint48"
            },
            {
              "internalType": "uint48",
              "name": "body",
              "type": "uint48"
            },
            {
              "internalType": "uint48",
              "name": "accessory",
              "type": "uint48"
            },
            {
              "internalType": "uint48",
              "name": "head",
              "type": "uint48"
            },
            {
              "internalType": "uint48",
              "name": "glasses",
              "type": "uint48"
            }
          ],
          "internalType": "struct ISportsManagerSeeder.Seed",
          "name": "seed",
          "type": "tuple"
        }
      ],
      "name": "dataURI",
      "outputs": [
        {
          "internalType": "string",
          "name": "",
          "type": "string"
        }
      ],
      "stateMutability": "view",
      "type": "function"
    },
    {
      "inputs": [
        {
          "components": [
            {
              "internalType": "uint48",
              "name": "background",
              "type": "uint48"
            },
            {
              "internalType": "uint48",
              "name": "body",
              "type": "uint48"
            },
            {
              "internalType": "uint48",
              "name": "accessory",
              "type": "uint48"
            },
            {
              "internalType": "uint48",
              "name": "head",
              "type": "uint48"
            },
            {
              "internalType": "uint48",
              "name": "glasses",
              "type": "uint48"
            }
          ],
          "internalType": "struct ISportsManagerSeeder.Seed",
          "name": "seed",
          "type": "tuple"
        }
      ],
      "name": "generateSVGImage",
      "outputs": [
        {
          "internalType": "string",
          "name": "",
          "type": "string"
        }
      ],
      "stateMutability": "view",
      "type": "function"
    },
    {
      "inputs": [
        {
          "internalType": "string",
          "name": "name",
          "type": "string"
        },
        {
          "internalType": "string",
          "name": "description",
          "type": "string"
        },
        {
          "components": [
            {
              "internalType": "uint48",
              "name": "background",
              "type": "uint48"
            },
            {
              "internalType": "uint48",
              "name": "body",
              "type": "uint48"
            },
            {
              "internalType": "uint48",
              "name": "accessory",
              "type": "uint48"
            },
            {
              "internalType": "uint48",
              "name": "head",
              "type": "uint48"
            },
            {
              "internalType": "uint48",
              "name": "glasses",
              "type": "uint48"
            }
          ],
          "internalType": "struct ISportsManagerSeeder.Seed",
          "name": "seed",
          "type": "tuple"
        }
      ],
      "name": "genericDataURI",
      "outputs": [
        {
          "internalType": "string",
          "name": "",
          "type": "string"
        }
      ],
      "stateMutability": "view",
      "type": "function"
    },
    {
      "inputs": [
        {
          "internalType": "uint256",
          "name": "",
          "type": "uint256"
        }
      ],
      "name": "glasses",
      "outputs": [
        {
          "internalType": "bytes",
          "name": "",
          "type": "bytes"
        }
      ],
      "stateMutability": "view",
      "type": "function"
    },
    {
      "inputs": [],
      "name": "glassesCount",
      "outputs": [
        {
          "internalType": "uint256",
          "name": "",
          "type": "uint256"
        }
      ],
      "stateMutability": "view",
      "type": "function"
    },
    {
      "inputs": [],
      "name": "headCount",
      "outputs": [
        {
          "internalType": "uint256",
          "name": "",
          "type": "uint256"
        }
      ],
      "stateMutability": "view",
      "type": "function"
    },
    {
      "inputs": [
        {
          "internalType": "uint256",
          "name": "",
          "type": "uint256"
        }
      ],
      "name": "heads",
      "outputs": [
        {
          "internalType": "bytes",
          "name": "",
          "type": "bytes"
        }
      ],
      "stateMutability": "view",
      "type": "function"
    },
    {
      "inputs": [],
      "name": "isDataURIEnabled",
      "outputs": [
        {
          "internalType": "bool",
          "name": "",
          "type": "bool"
        }
      ],
      "stateMutability": "view",
      "type": "function"
    },
    {
      "inputs": [],
      "name": "lockParts",
      "outputs": [],
      "stateMutability": "nonpayable",
      "type": "function"
    },
    {
      "inputs": [],
      "name": "owner",
      "outputs": [
        {
          "internalType": "address",
          "name": "",
          "type": "address"
        }
      ],
      "stateMutability": "view",
      "type": "function"
    },
    {
      "inputs": [
        {
          "internalType": "uint8",
          "name": "",
          "type": "uint8"
        },
        {
          "internalType": "uint256",
          "name": "",
          "type": "uint256"
        }
      ],
      "name": "palettes",
      "outputs": [
        {
          "internalType": "string",
          "name": "",
          "type": "string"
        }
      ],
      "stateMutability": "view",
      "type": "function"
    },
    {
      "inputs": [],
      "name": "renounceOwnership",
      "outputs": [],
      "stateMutability": "nonpayable",
      "type": "function"
    },
    {
      "inputs": [
        {
          "internalType": "string",
          "name": "_baseURI",
          "type": "string"
        }
      ],
      "name": "setBaseURI",
      "outputs": [],
      "stateMutability": "nonpayable",
      "type": "function"
    },
    {
      "inputs": [],
      "name": "toggleDataURIEnabled",
      "outputs": [],
      "stateMutability": "nonpayable",
      "type": "function"
    },
    {
      "inputs": [
        {
          "internalType": "uint256",
          "name": "tokenId",
          "type": "uint256"
        },
        {
          "components": [
            {
              "internalType": "uint48",
              "name": "background",
              "type": "uint48"
            },
            {
              "internalType": "uint48",
              "name": "body",
              "type": "uint48"
            },
            {
              "internalType": "uint48",
              "name": "accessory",
              "type": "uint48"
            },
            {
              "internalType": "uint48",
              "name": "head",
              "type": "uint48"
            },
            {
              "internalType": "uint48",
              "name": "glasses",
              "type": "uint48"
            }
          ],
          "internalType": "struct ISportsManagerSeeder.Seed",
          "name": "seed",
          "type": "tuple"
        }
      ],
      "name": "tokenURI",
      "outputs": [
        {
          "internalType": "string",
          "name": "",
          "type": "string"
        }
      ],
      "stateMutability": "view",
      "type": "function"
    },
    {
      "inputs": [
        {
          "internalType": "address",
          "name": "newOwner",
          "type": "address"
        }
      ],
      "name": "transferOwnership",
      "outputs": [],
      "stateMutability": "nonpayable",
      "type": "function"
    }
  ],
  "bytecode": "0x60806040526000805460ff60a81b1916600160a81b17905534801561002357600080fd5b5061002d33610032565b610082565b600080546001600160a01b038381166001600160a01b0319831681178455604051919092169283917f8be0079c531659141344cd1fd0a4f28419497f9722a3daafe3b4186f6b6457e09190a35050565b61265e806100916000396000f3fe608060405234801561001057600080fd5b506004361061025c5760003560e01c8063715018a6116101455780639a796205116100bd578063ce2f4f531161008c578063eba8180611610071578063eba81806146104e8578063f2fde38b146104f0578063f9da88631461050357600080fd5b8063ce2f4f53146104ba578063dfe8478b146104e057600080fd5b80639a79620514610479578063a51e41241461048c578063b982d1b91461049f578063cc2aa091146104b257600080fd5b8063839644da116101145780638a85a1e8116100f95780638a85a1e81461042b5780638da5cb5b1461043e57806391b7916a1461046657600080fd5b8063839644da1461040557806387db11bd1461041857600080fd5b8063715018a6146103a2578063773b9771146103aa5780637a34aad3146103df5780637ca94210146103f257600080fd5b80634531c0a8116101d85780635a503f13116101a7578063615bda101161018c578063615bda1014610374578063638ac270146103875780636c0360eb1461039a57600080fd5b80635a503f131461034e5780635e70664c1461036157600080fd5b80634531c0a8146103185780634daebac21461032057806355f804b314610328578063598fa9da1461033b57600080fd5b80632a1d07691161022f5780633cfdafd3116102145780633cfdafd3146102e05780634479cef2146102f357806344cee73c1461030557600080fd5b80632a1d0769146102c55780632ea04300146102cd57600080fd5b80630475d8631461026157806304bde4dd1461027657806317b552ab1461029f5780632715c90e146102b2575b600080fd5b61027461026f366004611e07565b610516565b005b610289610284366004611f7e565b6105dc565b60405161029691906122d0565b60405180910390f35b6102746102ad366004611e49565b610688565b6102746102c0366004611e49565b610709565b610274610786565b6102896102db366004611f62565b610861565b6102896102ee366004611f97565b6109ca565b6007545b604051908152602001610296565b610289610313366004611f7e565b610a36565b6003546102f7565b6005546102f7565b610274610336366004611e49565b610a46565b61028961034936600461205d565b610a98565b61028961035c366004611f7e565b610ad0565b61027461036f366004611e49565b610ae0565b610274610382366004611e49565b610b5d565b610289610395366004611f97565b610bda565b610289610c46565b610274610c53565b6000546103cf9074010000000000000000000000000000000000000000900460ff1681565b6040519015158152602001610296565b6102746103ed366004611e07565b610c67565b610289610400366004611f7e565b610d23565b610274610413366004611fc4565b610d33565b610289610426366004611eed565b610e21565b610274610439366004611e07565b610f98565b60005460405173ffffffffffffffffffffffffffffffffffffffff9091168152602001610296565b610274610474366004611e07565b611054565b610274610487366004611e49565b611110565b61027461049a366004611e07565b61118d565b6102896104ad366004611f7e565b611249565b6006546102f7565b6000546103cf907501000000000000000000000000000000000000000000900460ff1681565b610274611259565b6004546102f7565b6102746104fe366004611dd1565b6112e4565b610274610511366004612017565b611381565b61051e61141c565b60005474010000000000000000000000000000000000000000900460ff161561058e5760405162461bcd60e51b815260206004820152601060248201527f506172747320617265206c6f636b65640000000000000000000000000000000060448201526064015b60405180910390fd5b60005b818110156105d7576105c58383838181106105ae576105ae6125ca565b90506020028101906105c0919061240c565b611483565b806105cf81612562565b915050610591565b505050565b600381815481106105ec57600080fd5b9060005260206000200160009150905080546106079061250e565b80601f01602080910402602001604051908101604052809291908181526020018280546106339061250e565b80156106805780601f1061065557610100808354040283529160200191610680565b820191906000526020600020905b81548152906001019060200180831161066357829003601f168201915b505050505081565b61069061141c565b60005474010000000000000000000000000000000000000000900460ff16156106fb5760405162461bcd60e51b815260206004820152601060248201527f506172747320617265206c6f636b6564000000000000000000000000000000006044820152606401610585565b6107058282611483565b5050565b61071161141c565b60005474010000000000000000000000000000000000000000900460ff161561077c5760405162461bcd60e51b815260206004820152601060248201527f506172747320617265206c6f636b6564000000000000000000000000000000006044820152606401610585565b61070582826114c0565b61078e61141c565b60005474010000000000000000000000000000000000000000900460ff16156107f95760405162461bcd60e51b815260206004820152601060248201527f506172747320617265206c6f636b6564000000000000000000000000000000006044820152606401610585565b600080547fffffffffffffffffffffff00ffffffffffffffffffffffffffffffffffffffff16740100000000000000000000000000000000000000001781556040517f1680ee6d421f70ed6030d2fc4fcb50217a5dd617858d56562b119eca59172e579190a1565b606060006040518060400160405280610879856114fd565b81526020016003856000015165ffffffffffff168154811061089d5761089d6125ca565b9060005260206000200180546108b29061250e565b80601f01602080910402602001604051908101604052809291908181526020018280546108de9061250e565b801561092b5780601f106109005761010080835404028352916020019161092b565b820191906000526020600020905b81548152906001019060200180831161090e57829003601f168201915b5050505050815250905073__$e1d8844a0810dc0e87a665b1f2b5fa7c69$__6366b8c2418260026040518363ffffffff1660e01b815260040161096f929190612312565b60006040518083038186803b15801561098757600080fd5b505af415801561099b573d6000803e3d6000fd5b505050506040513d6000823e601f3d908101601f191682016040526109c39190810190611e7f565b9392505050565b6000546060907501000000000000000000000000000000000000000000900460ff1615610a02576109fb8383610bda565b9050610a30565b6001610a0d84611876565b604051602001610a1e929190612124565b60405160208183030381529060405290505b92915050565b600481815481106105ec57600080fd5b610a4e61141c565b610a5a60018383611b79565b507f6741b2fc379fad678116fe3d4d4b9a1a184ab53ba36b86ad0fa66340b1ab41ad8282604051610a8c9291906122e3565b60405180910390a15050565b60026020528160005260406000208181548110610ab457600080fd5b906000526020600020016000915091505080546106079061250e565b600681815481106105ec57600080fd5b610ae861141c565b60005474010000000000000000000000000000000000000000900460ff1615610b535760405162461bcd60e51b815260206004820152601060248201527f506172747320617265206c6f636b6564000000000000000000000000000000006044820152606401610585565b610705828261193e565b610b6561141c565b60005474010000000000000000000000000000000000000000900460ff1615610bd05760405162461bcd60e51b815260206004820152601060248201527f506172747320617265206c6f636b6564000000000000000000000000000000006044820152606401610585565b610705828261197b565b60606000610be784611876565b9050600081604051602001610bfc91906121f9565b6040516020818303038152906040529050600082604051602001610c20919061223e565b6040516020818303038152906040529050610c3c828287610e21565b9695505050505050565b600180546106079061250e565b610c5b61141c565b610c6560006119b8565b565b610c6f61141c565b60005474010000000000000000000000000000000000000000900460ff1615610cda5760405162461bcd60e51b815260206004820152601060248201527f506172747320617265206c6f636b6564000000000000000000000000000000006044820152606401610585565b60005b818110156105d757610d11838383818110610cfa57610cfa6125ca565b9050602002810190610d0c919061240c565b611a2d565b80610d1b81612562565b915050610cdd565b600581815481106105ec57600080fd5b610d3b61141c565b60ff831660009081526002602052604090205461010090610d5d9083906124ca565b1115610dd15760405162461bcd60e51b815260206004820152602160248201527f50616c65747465732063616e206f6e6c7920686f6c642032353620636f6c6f7260448201527f73000000000000000000000000000000000000000000000000000000000000006064820152608401610585565b60005b81811015610e1b57610e0984848484818110610df257610df26125ca565b9050602002810190610e04919061240c565b611a6a565b80610e1381612562565b915050610dd4565b50505050565b606060006040518060800160405280868152602001858152602001610e45856114fd565b81526020016003856000015165ffffffffffff1681548110610e6957610e696125ca565b906000526020600020018054610e7e9061250e565b80601f0160208091040260200160405190810160405280929190818152602001828054610eaa9061250e565b8015610ef75780601f10610ecc57610100808354040283529160200191610ef7565b820191906000526020600020905b815481529060010190602001808311610eda57829003601f168201915b5050505050815250905073__$e1d8844a0810dc0e87a665b1f2b5fa7c69$__63bf1deae28260026040518363ffffffff1660e01b8152600401610f3b929190612379565b60006040518083038186803b158015610f5357600080fd5b505af4158015610f67573d6000803e3d6000fd5b505050506040513d6000823e601f3d908101601f19168201604052610f8f9190810190611e7f565b95945050505050565b610fa061141c565b60005474010000000000000000000000000000000000000000900460ff161561100b5760405162461bcd60e51b815260206004820152601060248201527f506172747320617265206c6f636b6564000000000000000000000000000000006044820152606401610585565b60005b818110156105d75761104283838381811061102b5761102b6125ca565b905060200281019061103d919061240c565b6114c0565b8061104c81612562565b91505061100e565b61105c61141c565b60005474010000000000000000000000000000000000000000900460ff16156110c75760405162461bcd60e51b815260206004820152601060248201527f506172747320617265206c6f636b6564000000000000000000000000000000006044820152606401610585565b60005b818110156105d7576110fe8383838181106110e7576110e76125ca565b90506020028101906110f9919061240c565b61193e565b8061110881612562565b9150506110ca565b61111861141c565b60005474010000000000000000000000000000000000000000900460ff16156111835760405162461bcd60e51b815260206004820152601060248201527f506172747320617265206c6f636b6564000000000000000000000000000000006044820152606401610585565b6107058282611a2d565b61119561141c565b60005474010000000000000000000000000000000000000000900460ff16156112005760405162461bcd60e51b815260206004820152601060248201527f506172747320617265206c6f636b6564000000000000000000000000000000006044820152606401610585565b60005b818110156105d757611237838383818110611220576112206125ca565b9050602002810190611232919061240c565b61197b565b8061124181612562565b915050611203565b600781815481106105ec57600080fd5b61126161141c565b600080547fffffffffffffffffffff00ffffffffffffffffffffffffffffffffffffffffff811675010000000000000000000000000000000000000000009182900460ff1615918202179091556040518181527f360c3d72ee193226275b842f85231c259c934e85459fed80fa68e502ffa9dbde9060200160405180910390a150565b6112ec61141c565b73ffffffffffffffffffffffffffffffffffffffff81166113755760405162461bcd60e51b815260206004820152602660248201527f4f776e61626c653a206e6577206f776e657220697320746865207a65726f206160448201527f64647265737300000000000000000000000000000000000000000000000000006064820152608401610585565b61137e816119b8565b50565b61138961141c565b60ff83811660009081526002602052604090205411156114115760405162461bcd60e51b815260206004820152602160248201527f50616c65747465732063616e206f6e6c7920686f6c642032353620636f6c6f7260448201527f73000000000000000000000000000000000000000000000000000000000000006064820152608401610585565b6105d7838383611a6a565b60005473ffffffffffffffffffffffffffffffffffffffff163314610c655760405162461bcd60e51b815260206004820181905260248201527f4f776e61626c653a2063616c6c6572206973206e6f7420746865206f776e65726044820152606401610585565b600580546001810182556000919091526105d7907f036b6384b5eca791c62761152d0c79bb0604c104a5fb6f4eb0703f3154bb3db0018383611b79565b600480546001810182556000919091526105d7907f8a35acfbc15ff81a39ae7d344fd709f28e8600b4aa8c65c6b64bfe7fe36bd19b018383611b79565b60408051600480825260a0820190925260609160009190816020015b60608152602001906001900390816115195790505090506004836020015165ffffffffffff168154811061154f5761154f6125ca565b9060005260206000200180546115649061250e565b80601f01602080910402602001604051908101604052809291908181526020018280546115909061250e565b80156115dd5780601f106115b2576101008083540402835291602001916115dd565b820191906000526020600020905b8154815290600101906020018083116115c057829003601f168201915b5050505050816000815181106115f5576115f56125ca565b60200260200101819052506005836040015165ffffffffffff168154811061161f5761161f6125ca565b9060005260206000200180546116349061250e565b80601f01602080910402602001604051908101604052809291908181526020018280546116609061250e565b80156116ad5780601f10611682576101008083540402835291602001916116ad565b820191906000526020600020905b81548152906001019060200180831161169057829003601f168201915b5050505050816001815181106116c5576116c56125ca565b60200260200101819052506006836060015165ffffffffffff16815481106116ef576116ef6125ca565b9060005260206000200180546117049061250e565b80601f01602080910402602001604051908101604052809291908181526020018280546117309061250e565b801561177d5780601f106117525761010080835404028352916020019161177d565b820191906000526020600020905b81548152906001019060200180831161176057829003601f168201915b505050505081600281518110611795576117956125ca565b60200260200101819052506007836080015165ffffffffffff16815481106117bf576117bf6125ca565b9060005260206000200180546117d49061250e565b80601f01602080910402602001604051908101604052809291908181526020018280546118009061250e565b801561184d5780601f106118225761010080835404028352916020019161184d565b820191906000526020600020905b81548152906001019060200180831161183057829003601f168201915b505050505081600381518110611865576118656125ca565b602090810291909101015292915050565b6060600061188383611a97565b600101905060008167ffffffffffffffff8111156118a3576118a36125f9565b6040519080825280601f01601f1916602001820160405280156118cd576020820181803683370190505b5090508181016020015b7fffffffffffffffffffffffffffffffffffffffffffffffffffffffffffffffff017f3031323334353637383961626364656600000000000000000000000000000000600a86061a8153600a850494508461193157611936565b6118d7565b509392505050565b600380546001810182556000919091526105d7907fc2575a0e9e593c00f959f8c92f12db2869c3395a3b0502d05e2516446f71f85b018383611b79565b600780546001810182556000919091526105d7907fa66cc928b5edb82af9bd49922954155ab7b0942694bea4ce44661d9a8736c688018383611b79565b6000805473ffffffffffffffffffffffffffffffffffffffff8381167fffffffffffffffffffffffff0000000000000000000000000000000000000000831681178455604051919092169283917f8be0079c531659141344cd1fd0a4f28419497f9722a3daafe3b4186f6b6457e09190a35050565b600680546001810182556000919091526105d7907ff652222313e28459528d920b65115c16c04f3efc82aaedc97be59f3f377c0d3f018383611b79565b60ff83166000908152600260209081526040822080546001810182559083529120610e1b91018383611b79565b6000807a184f03e93ff9f4daa797ed6e38ed64bf6a1f0100000000000000008310611ae0577a184f03e93ff9f4daa797ed6e38ed64bf6a1f010000000000000000830492506040015b6d04ee2d6d415b85acef81000000008310611b0c576d04ee2d6d415b85acef8100000000830492506020015b662386f26fc100008310611b2a57662386f26fc10000830492506010015b6305f5e1008310611b42576305f5e100830492506008015b6127108310611b5657612710830492506004015b60648310611b68576064830492506002015b600a8310610a305760010192915050565b828054611b859061250e565b90600052602060002090601f016020900481019282611ba75760008555611c0b565b82601f10611bde578280017fffffffffffffffffffffffffffffffffffffffffffffffffffffffffffffff00823516178555611c0b565b82800160010185558215611c0b579182015b82811115611c0b578235825591602001919060010190611bf0565b50611c17929150611c1b565b5090565b5b80821115611c175760008155600101611c1c565b60008083601f840112611c4257600080fd5b50813567ffffffffffffffff811115611c5a57600080fd5b6020830191508360208260051b8501011115611c7557600080fd5b9250929050565b60008083601f840112611c8e57600080fd5b50813567ffffffffffffffff811115611ca657600080fd5b602083019150836020828501011115611c7557600080fd5b600082601f830112611ccf57600080fd5b8135611ce2611cdd826124a2565b612471565b818152846020838601011115611cf757600080fd5b816020850160208301376000918101602001919091529392505050565b600060a08284031215611d2657600080fd5b60405160a0810181811067ffffffffffffffff82111715611d4957611d496125f9565b604052905080611d5883611da5565b8152611d6660208401611da5565b6020820152611d7760408401611da5565b6040820152611d8860608401611da5565b6060820152611d9960808401611da5565b60808201525092915050565b803565ffffffffffff81168114611dbb57600080fd5b919050565b803560ff81168114611dbb57600080fd5b600060208284031215611de357600080fd5b813573ffffffffffffffffffffffffffffffffffffffff811681146109c357600080fd5b60008060208385031215611e1a57600080fd5b823567ffffffffffffffff811115611e3157600080fd5b611e3d85828601611c30565b90969095509350505050565b60008060208385031215611e5c57600080fd5b823567ffffffffffffffff811115611e7357600080fd5b611e3d85828601611c7c565b600060208284031215611e9157600080fd5b815167ffffffffffffffff811115611ea857600080fd5b8201601f81018413611eb957600080fd5b8051611ec7611cdd826124a2565b818152856020838501011115611edc57600080fd5b610f8f8260208301602086016124e2565b600080600060e08486031215611f0257600080fd5b833567ffffffffffffffff80821115611f1a57600080fd5b611f2687838801611cbe565b94506020860135915080821115611f3c57600080fd5b50611f4986828701611cbe565b925050611f598560408601611d14565b90509250925092565b600060a08284031215611f7457600080fd5b6109c38383611d14565b600060208284031215611f9057600080fd5b5035919050565b60008060c08385031215611faa57600080fd5b82359150611fbb8460208501611d14565b90509250929050565b600080600060408486031215611fd957600080fd5b611fe284611dc0565b9250602084013567ffffffffffffffff811115611ffe57600080fd5b61200a86828701611c30565b9497909650939450505050565b60008060006040848603121561202c57600080fd5b61203584611dc0565b9250602084013567ffffffffffffffff81111561205157600080fd5b61200a86828701611c7c565b6000806040838503121561207057600080fd5b61207983611dc0565b946020939093013593505050565b600081518084526020808501808196508360051b8101915082860160005b858110156120cf5782840389526120bd8483516120dc565b988501989350908401906001016120a5565b5091979650505050505050565b600081518084526120f48160208601602086016124e2565b601f01601f19169290920160200192915050565b6000815161211a8185602086016124e2565b9290920192915050565b600080845481600182811c91508083168061214057607f831692505b6020808410821415612179577f4e487b710000000000000000000000000000000000000000000000000000000086526022600452602486fd5b81801561218d57600181146121bc576121e9565b7fffffffffffffffffffffffffffffffffffffffffffffffffffffffffffffff008616895284890196506121e9565b60008b81526020902060005b868110156121e15781548b8201529085019083016121c8565b505084890196505b505050505050610f8f8185612108565b7f53706f7274734d616e616765722000000000000000000000000000000000000081526000825161223181600e8501602087016124e2565b91909101600e0192915050565b7f53706f7274734d616e616765722000000000000000000000000000000000000081526000825161227681600e8501602087016124e2565b7f2069732061206d656d626572206f66207468652053706f7274734d616e616765600e9390910192830152507f722044414f000000000000000000000000000000000000000000000000000000602e820152603301919050565b6020815260006109c360208301846120dc565b60208152816020820152818360408301376000818301604090810191909152601f909201601f19160101919050565b604081526000835160408084015261232d6080840182612087565b905060208501517fffffffffffffffffffffffffffffffffffffffffffffffffffffffffffffffc084830301606085015261236882826120dc565b925050508260208301529392505050565b60408152600083516080604084015261239560c08401826120dc565b905060208501517fffffffffffffffffffffffffffffffffffffffffffffffffffffffffffffffc0808584030160608601526123d183836120dc565b925060408701519150808584030160808601526123ee8383612087565b925060608701519150808584030160a08601525061236882826120dc565b60008083357fffffffffffffffffffffffffffffffffffffffffffffffffffffffffffffffe184360301811261244157600080fd5b83018035915067ffffffffffffffff82111561245c57600080fd5b602001915036819003821315611c7557600080fd5b604051601f8201601f1916810167ffffffffffffffff8111828210171561249a5761249a6125f9565b604052919050565b600067ffffffffffffffff8211156124bc576124bc6125f9565b50601f01601f191660200190565b600082198211156124dd576124dd61259b565b500190565b60005b838110156124fd5781810151838201526020016124e5565b83811115610e1b5750506000910152565b600181811c9082168061252257607f821691505b6020821081141561255c577f4e487b7100000000000000000000000000000000000000000000000000000000600052602260045260246000fd5b50919050565b60007fffffffffffffffffffffffffffffffffffffffffffffffffffffffffffffffff8214156125945761259461259b565b5060010190565b7f4e487b7100000000000000000000000000000000000000000000000000000000600052601160045260246000fd5b7f4e487b7100000000000000000000000000000000000000000000000000000000600052603260045260246000fd5b7f4e487b7100000000000000000000000000000000000000000000000000000000600052604160045260246000fdfea2646970667358221220afa0df34217eeff231e20cfb7a294691e7ce1c3308caba5bf0333aaa29a1b83564736f6c63430008060033",
  "linkReferences": {
    "contracts/libs/NFTDescriptor.sol": {
      "NFTDescriptor": [
        {
          "length": 20,
          "start": 2504
        },
        {
          "length": 20,
          "start": 3988
        }
      ]
    }
  },
  "deployedLinkReferences": {
    "contracts/libs/NFTDescriptor.sol": {
      "NFTDescriptor": [
        {
          "length": 20,
          "start": 2359
        },
        {
          "length": 20,
          "start": 3843
        }
      ]
    }
  }
}