{
  "_format": "hh-sol-artifact-1",
  "contractName": "SportsManagerAuctionHouse",
  "sourceName": "contracts/SportsManagerAuctionHouse.sol",
  "abi": [
    {
      "anonymous": false,
      "inputs": [
        {
          "indexed": true,
          "internalType": "uint256",
          "name": "sportsManagerId",
          "type": "uint256"
        },
        {
          "indexed": false,
          "internalType": "address",
          "name": "sender",
          "type": "address"
        },
        {
          "indexed": false,
          "internalType": "uint256",
          "name": "value",
          "type": "uint256"
        },
        {
          "indexed": false,
          "internalType": "bool",
          "name": "extended",
          "type": "bool"
        }
      ],
      "name": "AuctionBid",
      "type": "event"
    },
    {
      "anonymous": false,
      "inputs": [
        {
          "indexed": true,
          "internalType": "uint256",
          "name": "sportsManagerId",
          "type": "uint256"
        },
        {
          "indexed": false,
          "internalType": "uint256",
          "name": "startTime",
          "type": "uint256"
        },
        {
          "indexed": false,
          "internalType": "uint256",
          "name": "endTime",
          "type": "uint256"
        }
      ],
      "name": "AuctionCreated",
      "type": "event"
    },
    {
      "anonymous": false,
      "inputs": [
        {
          "indexed": true,
          "internalType": "uint256",
          "name": "sportsManagerId",
          "type": "uint256"
        },
        {
          "indexed": false,
          "internalType": "uint256",
          "name": "endTime",
          "type": "uint256"
        }
      ],
      "name": "AuctionExtended",
      "type": "event"
    },
    {
      "anonymous": false,
      "inputs": [
        {
          "indexed": false,
          "internalType": "uint256",
          "name": "minBidIncrementPercentage",
          "type": "uint256"
        }
      ],
      "name": "AuctionMinBidIncrementPercentageUpdated",
      "type": "event"
    },
    {
      "anonymous": false,
      "inputs": [
        {
          "indexed": false,
          "internalType": "uint256",
          "name": "reservePrice",
          "type": "uint256"
        }
      ],
      "name": "AuctionReservePriceUpdated",
      "type": "event"
    },
    {
      "anonymous": false,
      "inputs": [
        {
          "indexed": true,
          "internalType": "uint256",
          "name": "sportsManagerId",
          "type": "uint256"
        },
        {
          "indexed": false,
          "internalType": "address",
          "name": "winner",
          "type": "address"
        },
        {
          "indexed": false,
          "internalType": "uint256",
          "name": "amount",
          "type": "uint256"
        }
      ],
      "name": "AuctionSettled",
      "type": "event"
    },
    {
      "anonymous": false,
      "inputs": [
        {
          "indexed": false,
          "internalType": "uint256",
          "name": "timeBuffer",
          "type": "uint256"
        }
      ],
      "name": "AuctionTimeBufferUpdated",
      "type": "event"
    },
    {
      "anonymous": false,
      "inputs": [
        {
          "indexed": false,
          "internalType": "uint8",
          "name": "version",
          "type": "uint8"
        }
      ],
      "name": "Initialized",
      "type": "event"
    },
    {
      "anonymous": false,
      "inputs": [
        {
          "indexed": true,
          "internalType": "address",
          "name": "previousOwner",
          "type": "address"
        },
        {
          "indexed": true,
          "internalType": "address",
          "name": "newOwner",
          "type": "address"
        }
      ],
      "name": "OwnershipTransferred",
      "type": "event"
    },
    {
      "anonymous": false,
      "inputs": [
        {
          "indexed": false,
          "internalType": "address",
          "name": "account",
          "type": "address"
        }
      ],
      "name": "Paused",
      "type": "event"
    },
    {
      "anonymous": false,
      "inputs": [
        {
          "indexed": false,
          "internalType": "address",
          "name": "account",
          "type": "address"
        }
      ],
      "name": "Unpaused",
      "type": "event"
    },
    {
      "inputs": [],
      "name": "auction",
      "outputs": [
        {
          "internalType": "uint256",
          "name": "sportsManagerId",
          "type": "uint256"
        },
        {
          "internalType": "uint256",
          "name": "amount",
          "type": "uint256"
        },
        {
          "internalType": "uint256",
          "name": "startTime",
          "type": "uint256"
        },
        {
          "internalType": "uint256",
          "name": "endTime",
          "type": "uint256"
        },
        {
          "internalType": "address payable",
          "name": "bidder",
          "type": "address"
        },
        {
          "internalType": "bool",
          "name": "settled",
          "type": "bool"
        }
      ],
      "stateMutability": "view",
      "type": "function"
    },
    {
      "inputs": [
        {
          "internalType": "uint256",
          "name": "sportsManagerId",
          "type": "uint256"
        }
      ],
      "name": "createBid",
      "outputs": [],
      "stateMutability": "payable",
      "type": "function"
    },
    {
      "inputs": [],
      "name": "duration",
      "outputs": [
        {
          "internalType": "uint256",
          "name": "",
          "type": "uint256"
        }
      ],
      "stateMutability": "view",
      "type": "function"
    },
    {
      "inputs": [
        {
          "internalType": "contract ISportsManagerToken",
          "name": "_sportsManagers",
          "type": "address"
        },
        {
          "internalType": "address",
          "name": "_weth",
          "type": "address"
        },
        {
          "internalType": "uint256",
          "name": "_timeBuffer",
          "type": "uint256"
        },
        {
          "internalType": "uint256",
          "name": "_reservePrice",
          "type": "uint256"
        },
        {
          "internalType": "uint8",
          "name": "_minBidIncrementPercentage",
          "type": "uint8"
        },
        {
          "internalType": "uint256",
          "name": "_duration",
          "type": "uint256"
        }
      ],
      "name": "initialize",
      "outputs": [],
      "stateMutability": "nonpayable",
      "type": "function"
    },
    {
      "inputs": [],
      "name": "minBidIncrementPercentage",
      "outputs": [
        {
          "internalType": "uint8",
          "name": "",
          "type": "uint8"
        }
      ],
      "stateMutability": "view",
      "type": "function"
    },
    {
      "inputs": [],
      "name": "owner",
      "outputs": [
        {
          "internalType": "address",
          "name": "",
          "type": "address"
        }
      ],
      "stateMutability": "view",
      "type": "function"
    },
    {
      "inputs": [],
      "name": "pause",
      "outputs": [],
      "stateMutability": "nonpayable",
      "type": "function"
    },
    {
      "inputs": [],
      "name": "paused",
      "outputs": [
        {
          "internalType": "bool",
          "name": "",
          "type": "bool"
        }
      ],
      "stateMutability": "view",
      "type": "function"
    },
    {
      "inputs": [],
      "name": "renounceOwnership",
      "outputs": [],
      "stateMutability": "nonpayable",
      "type": "function"
    },
    {
      "inputs": [],
      "name": "reservePrice",
      "outputs": [
        {
          "internalType": "uint256",
          "name": "",
          "type": "uint256"
        }
      ],
      "stateMutability": "view",
      "type": "function"
    },
    {
      "inputs": [
        {
          "internalType": "uint8",
          "name": "_minBidIncrementPercentage",
          "type": "uint8"
        }
      ],
      "name": "setMinBidIncrementPercentage",
      "outputs": [],
      "stateMutability": "nonpayable",
      "type": "function"
    },
    {
      "inputs": [
        {
          "internalType": "uint256",
          "name": "_reservePrice",
          "type": "uint256"
        }
      ],
      "name": "setReservePrice",
      "outputs": [],
      "stateMutability": "nonpayable",
      "type": "function"
    },
    {
      "inputs": [
        {
          "internalType": "uint256",
          "name": "_timeBuffer",
          "type": "uint256"
        }
      ],
      "name": "setTimeBuffer",
      "outputs": [],
      "stateMutability": "nonpayable",
      "type": "function"
    },
    {
      "inputs": [],
      "name": "settleAuction",
      "outputs": [],
      "stateMutability": "nonpayable",
      "type": "function"
    },
    {
      "inputs": [],
      "name": "settleCurrentAndCreateNewAuction",
      "outputs": [],
      "stateMutability": "nonpayable",
      "type": "function"
    },
    {
      "inputs": [],
      "name": "sportsManagers",
      "outputs": [
        {
          "internalType": "contract ISportsManagerToken",
          "name": "",
          "type": "address"
        }
      ],
      "stateMutability": "view",
      "type": "function"
    },
    {
      "inputs": [],
      "name": "timeBuffer",
      "outputs": [
        {
          "internalType": "uint256",
          "name": "",
          "type": "uint256"
        }
      ],
      "stateMutability": "view",
      "type": "function"
    },
    {
      "inputs": [
        {
          "internalType": "address",
          "name": "newOwner",
          "type": "address"
        }
      ],
      "name": "transferOwnership",
      "outputs": [],
      "stateMutability": "nonpayable",
      "type": "function"
    },
    {
      "inputs": [],
      "name": "unpause",
      "outputs": [],
      "stateMutability": "nonpayable",
      "type": "function"
    },
    {
      "inputs": [],
      "name": "weth",
      "outputs": [
        {
          "internalType": "address",
          "name": "",
          "type": "address"
        }
      ],
      "stateMutability": "view",
      "type": "function"
    }
  ],
  "bytecode": "0x608060405234801561001057600080fd5b50611be4806100206000396000f3fe60806040526004361061015f5760003560e01c806387f49f54116100c0578063d9b4773f11610074578063ec91f2a411610059578063ec91f2a414610424578063f25efffc1461043a578063f2fde38b1461044f57600080fd5b8063d9b4773f146103e1578063db2e1eed1461040e57600080fd5b8063a4d0a17e116100a5578063a4d0a17e14610380578063b296024d14610395578063ce9c7c0d146103c157600080fd5b806387f49f54146103355780638da5cb5b1461035557600080fd5b8063659dd2b411610117578063715018a6116100fc578063715018a61461026c5780637d9f6db5146102815780638456cb591461032057600080fd5b8063659dd2b4146102395780637120334b1461024c57600080fd5b80633f4ba83a116101485780633f4ba83a146101af5780633fc8cef3146101c45780635c975abb1461021657600080fd5b80630fb5a6b41461016457806336ebdb381461018d575b600080fd5b34801561017057600080fd5b5061017a60ce5481565b6040519081526020015b60405180910390f35b34801561019957600080fd5b506101ad6101a8366004611935565b61046f565b005b3480156101bb57600080fd5b506101ad6104c0565b3480156101d057600080fd5b5060ca546101f19073ffffffffffffffffffffffffffffffffffffffff1681565b60405173ffffffffffffffffffffffffffffffffffffffff9091168152602001610184565b34801561022257600080fd5b5060335460ff166040519015158152602001610184565b6101ad610247366004611903565b610508565b34801561025857600080fd5b506101ad610267366004611903565b610846565b34801561027857600080fd5b506101ad610883565b34801561028d57600080fd5b5060cf5460d05460d15460d25460d3546102db949392919073ffffffffffffffffffffffffffffffffffffffff81169074010000000000000000000000000000000000000000900460ff1686565b60408051968752602087019590955293850192909252606084015273ffffffffffffffffffffffffffffffffffffffff166080830152151560a082015260c001610184565b34801561032c57600080fd5b506101ad610895565b34801561034157600080fd5b506101ad6103503660046118a0565b6108a5565b34801561036157600080fd5b5060975473ffffffffffffffffffffffffffffffffffffffff166101f1565b34801561038c57600080fd5b506101ad610a92565b3480156103a157600080fd5b5060cd546103af9060ff1681565b60405160ff9091168152602001610184565b3480156103cd57600080fd5b506101ad6103dc366004611903565b610ab4565b3480156103ed57600080fd5b5060c9546101f19073ffffffffffffffffffffffffffffffffffffffff1681565b34801561041a57600080fd5b5061017a60cc5481565b34801561043057600080fd5b5061017a60cb5481565b34801561044657600080fd5b506101ad610af1565b34801561045b57600080fd5b506101ad61046a36600461185a565b610b11565b610477610bab565b60cd805460ff191660ff83169081179091556040519081527fec5ccd96cc77b6219e9d44143df916af68fc169339ea7de5008ff15eae13450d906020015b60405180910390a150565b6104c8610bab565b6104d0610c12565b60d15415806104f9575060d35474010000000000000000000000000000000000000000900460ff165b1561050657610506610c71565b565b610510610e28565b6040805160c08101825260cf5480825260d054602083015260d1549282019290925260d254606082015260d35473ffffffffffffffffffffffffffffffffffffffff8116608083015274010000000000000000000000000000000000000000900460ff16151560a08201529082146105cf5760405162461bcd60e51b815260206004820181905260248201527f53706f7274734d616e61676572206e6f7420757020666f722061756374696f6e60448201526064015b60405180910390fd5b806060015142106106225760405162461bcd60e51b815260206004820152600f60248201527f41756374696f6e2065787069726564000000000000000000000000000000000060448201526064016105c6565b60cc543410156106745760405162461bcd60e51b815260206004820152601f60248201527f4d7573742073656e64206174206c65617374207265736572766550726963650060448201526064016105c6565b60cd54602082015160649161068e9160ff909116906119de565b61069891906119a3565b81602001516106a7919061198b565b34101561071e576040805162461bcd60e51b81526020600482015260248101919091527f4d7573742073656e64206d6f7265207468616e206c617374206269642062792060448201527f6d696e426964496e6372656d656e7450657263656e7461676520616d6f756e7460648201526084016105c6565b608081015173ffffffffffffffffffffffffffffffffffffffff81161561074d5761074d818360200151610e82565b3460d05560d380547fffffffffffffffffffffffff0000000000000000000000000000000000000000163317905560cb54606083015160009190610792904290611a1b565b10905080156107b35760cb546107a8904261198b565b6060840181905260d2555b8251604080513381523460208201528315158183015290517f1159164c56f277e6fc99c11731bd380e0347deb969b75523398734c252706ea39181900360600190a2801561083657825160608401516040519081527f6e912a3a9105bdd2af817ba5adc14e6c127c1035b5b648faa29ca0d58ab8ff4e9060200160405180910390a25b5050506108436001606555565b50565b61084e610bab565b60cb8190556040518181527f1b55d9f7002bda4490f467e326f22a4a847629c0f2d1ed421607d318d25b410d906020016104b5565b61088b610bab565b6105066000610fcd565b61089d610bab565b610506611044565b600054610100900460ff16158080156108c55750600054600160ff909116105b806108df5750303b1580156108df575060005460ff166001145b6109515760405162461bcd60e51b815260206004820152602e60248201527f496e697469616c697a61626c653a20636f6e747261637420697320616c72656160448201527f647920696e697469616c697a656400000000000000000000000000000000000060648201526084016105c6565b6000805460ff19166001179055801561099157600080547fffffffffffffffffffffffffffffffffffffffffffffffffffffffffffff00ff166101001790555b610999611081565b6109a1611106565b6109a961118b565b6109b1611044565b60c9805473ffffffffffffffffffffffffffffffffffffffff808a167fffffffffffffffffffffffff00000000000000000000000000000000000000009283161790925560ca80549289169290911691909117905560cb85905560cc84905560cd805460ff851660ff1990911617905560ce8290558015610a8957600080547fffffffffffffffffffffffffffffffffffffffffffffffffffffffffffff00ff169055604051600181527f7f26b83ff96e1f2b6a682f133852f6798a09c465da95921460cefb38474024989060200160405180910390a15b50505050505050565b610a9a611210565b610aa2610e28565b610aaa611262565b6105066001606555565b610abc610bab565b60cc8190556040518181527f6ab2e127d7fdf53b8f304e59d3aab5bfe97979f52a85479691a6fab27a28a6b2906020016104b5565b610af9610e28565b610b016115da565b610b09611262565b610aaa610c71565b610b19610bab565b73ffffffffffffffffffffffffffffffffffffffff8116610ba25760405162461bcd60e51b815260206004820152602660248201527f4f776e61626c653a206e6577206f776e657220697320746865207a65726f206160448201527f646472657373000000000000000000000000000000000000000000000000000060648201526084016105c6565b61084381610fcd565b60975473ffffffffffffffffffffffffffffffffffffffff1633146105065760405162461bcd60e51b815260206004820181905260248201527f4f776e61626c653a2063616c6c6572206973206e6f7420746865206f776e657260448201526064016105c6565b610c1a611210565b6033805460ff191690557f5db9ee0a495bf2e6ff9c91a7834c1ba4fdd244a5e8aa4e537bd38aeae4b073aa335b60405173ffffffffffffffffffffffffffffffffffffffff909116815260200160405180910390a1565b60c960009054906101000a900473ffffffffffffffffffffffffffffffffffffffff1673ffffffffffffffffffffffffffffffffffffffff16631249c58b6040518163ffffffff1660e01b8152600401602060405180830381600087803b158015610cdb57600080fd5b505af1925050508015610d29575060408051601f3d9081017fffffffffffffffffffffffffffffffffffffffffffffffffffffffffffffffe0168201909252610d269181019061191c565b60015b610d6957610d35611ad3565b806308c379a01415610d5d5750610d4a611aef565b80610d555750610d5f565b610843611044565b505b3d6000803e3d6000fd5b60ce544290600090610d7b908361198b565b6040805160c08101825285815260006020808301829052828401879052606083018590526080830182905260a090920181905260cf87905560d05560d185905560d283905560d380547fffffffffffffffffffffff000000000000000000000000000000000000000000169055815185815290810183905291925084917fd6eddd1118d71820909c1197aa966dbc15ed6f508554252169cc3d5ccac756ca910160405180910390a2505050565b60026065541415610e7b5760405162461bcd60e51b815260206004820152601f60248201527f5265656e7472616e637947756172643a207265656e7472616e742063616c6c0060448201526064016105c6565b6002606555565b610e8c828261162d565b610fc25760ca60009054906101000a900473ffffffffffffffffffffffffffffffffffffffff1673ffffffffffffffffffffffffffffffffffffffff1663d0e30db0826040518263ffffffff1660e01b81526004016000604051808303818588803b158015610efa57600080fd5b505af1158015610f0e573d6000803e3d6000fd5b505060ca546040517fa9059cbb00000000000000000000000000000000000000000000000000000000815273ffffffffffffffffffffffffffffffffffffffff878116600483015260248201879052909116935063a9059cbb92506044019050602060405180830381600087803b158015610f8857600080fd5b505af1158015610f9c573d6000803e3d6000fd5b505050506040513d601f19601f82011682018060405250810190610fc0919061187e565b505b5050565b6001606555565b6097805473ffffffffffffffffffffffffffffffffffffffff8381167fffffffffffffffffffffffff0000000000000000000000000000000000000000831681179093556040519116919082907f8be0079c531659141344cd1fd0a4f28419497f9722a3daafe3b4186f6b6457e090600090a35050565b61104c6115da565b6033805460ff191660011790557f62e78cea01bee320cd4e420270b5ea74000d11b0c9f74754ebdbfc544b05a258610c473390565b600054610100900460ff166110fe5760405162461bcd60e51b815260206004820152602b60248201527f496e697469616c697a61626c653a20636f6e7472616374206973206e6f74206960448201527f6e697469616c697a696e6700000000000000000000000000000000000000000060648201526084016105c6565b6105066116b8565b600054610100900460ff166111835760405162461bcd60e51b815260206004820152602b60248201527f496e697469616c697a61626c653a20636f6e7472616374206973206e6f74206960448201527f6e697469616c697a696e6700000000000000000000000000000000000000000060648201526084016105c6565b610506611741565b600054610100900460ff166112085760405162461bcd60e51b815260206004820152602b60248201527f496e697469616c697a61626c653a20636f6e7472616374206973206e6f74206960448201527f6e697469616c697a696e6700000000000000000000000000000000000000000060648201526084016105c6565b6105066117be565b60335460ff166105065760405162461bcd60e51b815260206004820152601460248201527f5061757361626c653a206e6f742070617573656400000000000000000000000060448201526064016105c6565b6040805160c08101825260cf54815260d054602082015260d15491810182905260d254606082015260d35473ffffffffffffffffffffffffffffffffffffffff8116608083015274010000000000000000000000000000000000000000900460ff16151560a0820152906113185760405162461bcd60e51b815260206004820152601460248201527f41756374696f6e206861736e277420626567756e00000000000000000000000060448201526064016105c6565b8060a001511561136a5760405162461bcd60e51b815260206004820181905260248201527f41756374696f6e2068617320616c7265616479206265656e20736574746c656460448201526064016105c6565b80606001514210156113be5760405162461bcd60e51b815260206004820152601860248201527f41756374696f6e206861736e277420636f6d706c65746564000000000000000060448201526064016105c6565b60d380547fffffffffffffffffffffff00ffffffffffffffffffffffffffffffffffffffff1674010000000000000000000000000000000000000000179055608081015173ffffffffffffffffffffffffffffffffffffffff166114ad5760c95481516040517f42966c6800000000000000000000000000000000000000000000000000000000815273ffffffffffffffffffffffffffffffffffffffff909216916342966c68916114769160040190815260200190565b600060405180830381600087803b15801561149057600080fd5b505af11580156114a4573d6000803e3d6000fd5b50505050611547565b60c954608082015182516040517f23b872dd00000000000000000000000000000000000000000000000000000000815230600482015273ffffffffffffffffffffffffffffffffffffffff928316602482015260448101919091529116906323b872dd90606401600060405180830381600087803b15801561152e57600080fd5b505af1158015611542573d6000803e3d6000fd5b505050505b60208101511561157d5761157d61157360975473ffffffffffffffffffffffffffffffffffffffff1690565b8260200151610e82565b805160808201516020808401516040805173ffffffffffffffffffffffffffffffffffffffff9094168452918301527fc9f72b276a388619c6d185d146697036241880c36654b1a3ffdad07c24038d99910160405180910390a250565b60335460ff16156105065760405162461bcd60e51b815260206004820152601060248201527f5061757361626c653a207061757365640000000000000000000000000000000060448201526064016105c6565b60408051600080825260208201909252819073ffffffffffffffffffffffffffffffffffffffff85169061753090859060405161166a9190611950565b600060405180830381858888f193505050503d80600081146116a8576040519150601f19603f3d011682016040523d82523d6000602084013e6116ad565b606091505b509095945050505050565b600054610100900460ff166117355760405162461bcd60e51b815260206004820152602b60248201527f496e697469616c697a61626c653a20636f6e7472616374206973206e6f74206960448201527f6e697469616c697a696e6700000000000000000000000000000000000000000060648201526084016105c6565b6033805460ff19169055565b600054610100900460ff16610fc65760405162461bcd60e51b815260206004820152602b60248201527f496e697469616c697a61626c653a20636f6e7472616374206973206e6f74206960448201527f6e697469616c697a696e6700000000000000000000000000000000000000000060648201526084016105c6565b600054610100900460ff1661183b5760405162461bcd60e51b815260206004820152602b60248201527f496e697469616c697a61626c653a20636f6e7472616374206973206e6f74206960448201527f6e697469616c697a696e6700000000000000000000000000000000000000000060648201526084016105c6565b61050633610fcd565b803560ff8116811461185557600080fd5b919050565b60006020828403121561186c57600080fd5b813561187781611b8c565b9392505050565b60006020828403121561189057600080fd5b8151801515811461187757600080fd5b60008060008060008060c087890312156118b957600080fd5b86356118c481611b8c565b955060208701356118d481611b8c565b945060408701359350606087013592506118f060808801611844565b915060a087013590509295509295509295565b60006020828403121561191557600080fd5b5035919050565b60006020828403121561192e57600080fd5b5051919050565b60006020828403121561194757600080fd5b61187782611844565b6000825160005b818110156119715760208186018101518583015201611957565b81811115611980576000828501525b509190910192915050565b6000821982111561199e5761199e611aa4565b500190565b6000826119d9577f4e487b7100000000000000000000000000000000000000000000000000000000600052601260045260246000fd5b500490565b6000817fffffffffffffffffffffffffffffffffffffffffffffffffffffffffffffffff0483118215151615611a1657611a16611aa4565b500290565b600082821015611a2d57611a2d611aa4565b500390565b7fffffffffffffffffffffffffffffffffffffffffffffffffffffffffffffffe0601f830116810181811067ffffffffffffffff82111715611a9d577f4e487b7100000000000000000000000000000000000000000000000000000000600052604160045260246000fd5b6040525050565b7f4e487b7100000000000000000000000000000000000000000000000000000000600052601160045260246000fd5b600060033d1115611aec5760046000803e5060005160e01c5b90565b600060443d1015611afd5790565b6040517ffffffffffffffffffffffffffffffffffffffffffffffffffffffffffffffffc803d016004833e81513d67ffffffffffffffff8160248401118184111715611b4b57505050505090565b8285019150815181811115611b635750505050505090565b843d8701016020828501011115611b7d5750505050505090565b6116ad60208286010187611a32565b73ffffffffffffffffffffffffffffffffffffffff8116811461084357600080fdfea26469706673582212204e7d76e69fd9ed197d75fd3567a02d01ad5a0f29665c093694eeaedea3c5b07d64736f6c63430008060033",
  "linkReferences": {},
  "deployedLinkReferences": {}
}