{
  "_format": "hh-sol-artifact-1",
  "contractName": "SportsManagerStream",
  "sourceName": "contracts/stream/SportsManagerStream.sol",
  "abi": [
    {
      "inputs": [],
      "name": "TransferFailed",
      "type": "error"
    },
    {
      "anonymous": false,
      "inputs": [
        {
          "indexed": false,
          "internalType": "uint8",
          "name": "version",
          "type": "uint8"
        }
      ],
      "name": "Initialized",
      "type": "event"
    },
    {
      "inputs": [
        {
          "components": [
            {
              "internalType": "address",
              "name": "account",
              "type": "address"
            },
            {
              "internalType": "uint32",
              "name": "value",
              "type": "uint32"
            },
            {
              "internalType": "uint32",
              "name": "total",
              "type": "uint32"
            }
          ],
          "internalType": "struct SportsManagerStream.Member[]",
          "name": "m",
          "type": "tuple[]"
        }
      ],
      "name": "initialize",
      "outputs": [],
      "stateMutability": "nonpayable",
      "type": "function"
    },
    {
      "inputs": [],
      "name": "members",
      "outputs": [
        {
          "components": [
            {
              "internalType": "address",
              "name": "account",
              "type": "address"
            },
            {
              "internalType": "uint32",
              "name": "value",
              "type": "uint32"
            },
            {
              "internalType": "uint32",
              "name": "total",
              "type": "uint32"
            }
          ],
          "internalType": "struct SportsManagerStream.Member[]",
          "name": "",
          "type": "tuple[]"
        }
      ],
      "stateMutability": "view",
      "type": "function"
    },
    {
      "stateMutability": "payable",
      "type": "receive"
    }
  ],
  "bytecode": "0x608060405234801561001057600080fd5b5061082a806100206000396000f3fe60806040526004361061002d5760003560e01c8063804e1c081461017c578063bdd4d18d1461019e57600080fd5b36610177576001546100a0576040517f08c379a000000000000000000000000000000000000000000000000000000000815260206004820152600160248201527f310000000000000000000000000000000000000000000000000000000000000060448201526064015b60405180910390fd5b60005b600154811015610174576000600182815481106100c2576100c2610687565b600091825260209182902060408051606081018252929091015473ffffffffffffffffffffffffffffffffffffffff811680845263ffffffff740100000000000000000000000000000000000000008304811695850186905278010000000000000000000000000000000000000000000000009092049091169183018290529193506101619261015290346105e2565b61015c91906105a7565b6101c9565b508061016c8161061f565b9150506100a3565b50005b600080fd5b34801561018857600080fd5b5061019c6101973660046104b9565b610213565b005b3480156101aa57600080fd5b506101b36103ff565b6040516101c0919061052e565b60405180910390f35b600080600080600085875af190508061020e576040517f90b8ec1800000000000000000000000000000000000000000000000000000000815260040160405180910390fd5b505050565b600054610100900460ff16158080156102335750600054600160ff909116105b8061024d5750303b15801561024d575060005460ff166001145b6102d9576040517f08c379a000000000000000000000000000000000000000000000000000000000815260206004820152602e60248201527f496e697469616c697a61626c653a20636f6e747261637420697320616c72656160448201527f647920696e697469616c697a65640000000000000000000000000000000000006064820152608401610097565b600080547fffffffffffffffffffffffffffffffffffffffffffffffffffffffffffffff00166001179055801561033757600080547fffffffffffffffffffffffffffffffffffffffffffffffffffffffffffff00ff166101001790555b60005b8281101561039757600184848381811061035657610356610687565b8354600181018555600094855260209094206060909102929092019291909101905061038282826106d2565b5050808061038f9061061f565b91505061033a565b50801561020e57600080547fffffffffffffffffffffffffffffffffffffffffffffffffffffffffffff00ff169055604051600181527f7f26b83ff96e1f2b6a682f133852f6798a09c465da95921460cefb38474024989060200160405180910390a1505050565b60606001805480602002602001604051908101604052809291908181526020016000905b828210156104b0576000848152602090819020604080516060810182529185015473ffffffffffffffffffffffffffffffffffffffff8116835263ffffffff74010000000000000000000000000000000000000000820481168486015278010000000000000000000000000000000000000000000000009091041690820152825260019092019101610423565b50505050905090565b600080602083850312156104cc57600080fd5b823567ffffffffffffffff808211156104e457600080fd5b818501915085601f8301126104f857600080fd5b81358181111561050757600080fd5b86602060608302850101111561051c57600080fd5b60209290920196919550909350505050565b602080825282518282018190526000919060409081850190868401855b8281101561059a578151805173ffffffffffffffffffffffffffffffffffffffff1685528681015163ffffffff908116888701529086015116858501526060909301929085019060010161054b565b5091979650505050505050565b6000826105dd577f4e487b7100000000000000000000000000000000000000000000000000000000600052601260045260246000fd5b500490565b6000817fffffffffffffffffffffffffffffffffffffffffffffffffffffffffffffffff048311821515161561061a5761061a610658565b500290565b60007fffffffffffffffffffffffffffffffffffffffffffffffffffffffffffffffff82141561065157610651610658565b5060010190565b7f4e487b7100000000000000000000000000000000000000000000000000000000600052601160045260246000fd5b7f4e487b7100000000000000000000000000000000000000000000000000000000600052603260045260246000fd5b6000813563ffffffff811681146106cc57600080fd5b92915050565b813573ffffffffffffffffffffffffffffffffffffffff81168082146106f757600080fd5b82549150807fffffffffffffffffffffffff0000000000000000000000000000000000000000831617835577ffffffff0000000000000000000000000000000000000000610747602086016106b6565b60a01b1680827fffffffffffffffff0000000000000000000000000000000000000000000000008516171784557bffffffff00000000000000000000000000000000000000000000000061079d604087016106b6565b60c01b167fffffffff00000000ffffffffffffffffffffffffffffffffffffffffffffffff83167fffffffff000000000000000000000000000000000000000000000000000000008516178217178455505050505056fea26469706673582212200a7821b7e2cd2453c752bab9f9fd88cb3660650fcf4232e34bbf0d1a3378ef6f64736f6c63430008060033",
  "linkReferences": {},
  "deployedLinkReferences": {}
}