{
  "_format": "hh-sol-artifact-1",
  "contractName": "SportsManagerStream",
  "sourceName": "contracts/stream/SportsManagerStream.sol",
  "abi": [
    {
      "inputs": [],
      "name": "TransferFailed",
      "type": "error"
    },
    {
      "inputs": [
        {
          "components": [
            {
              "internalType": "address",
              "name": "account",
              "type": "address"
            },
            {
              "internalType": "uint32",
              "name": "value",
              "type": "uint32"
            },
            {
              "internalType": "uint32",
              "name": "total",
              "type": "uint32"
            }
          ],
          "internalType": "struct SportsManagerStream.Member[]",
          "name": "m",
          "type": "tuple[]"
        }
      ],
      "name": "initialize",
      "outputs": [],
      "stateMutability": "nonpayable",
      "type": "function"
    },
    {
      "inputs": [],
      "name": "members",
      "outputs": [
        {
          "components": [
            {
              "internalType": "address",
              "name": "account",
              "type": "address"
            },
            {
              "internalType": "uint32",
              "name": "value",
              "type": "uint32"
            },
            {
              "internalType": "uint32",
              "name": "total",
              "type": "uint32"
            }
          ],
          "internalType": "struct SportsManagerStream.Member[]",
          "name": "",
          "type": "tuple[]"
        }
      ],
      "stateMutability": "view",
      "type": "function"
    },
    {
      "stateMutability": "payable",
      "type": "receive"
    }
  ],
  "bytecode": "0x608060405234801561001057600080fd5b506107b6806100206000396000f3fe60806040526004361061002d5760003560e01c8063804e1c081461017c578063bdd4d18d1461019e57600080fd5b36610177576001546100a0576040517f08c379a000000000000000000000000000000000000000000000000000000000815260206004820152600160248201527f310000000000000000000000000000000000000000000000000000000000000060448201526064015b60405180910390fd5b60005b600154811015610174576000600182815481106100c2576100c2610613565b600091825260209182902060408051606081018252929091015473ffffffffffffffffffffffffffffffffffffffff811680845263ffffffff7401000000000000000000000000000000000000000083048116958501869052780100000000000000000000000000000000000000000000000090920490911691830182905291935061016192610152903461056e565b61015c9190610533565b6101c9565b508061016c816105ab565b9150506100a3565b50005b600080fd5b34801561018857600080fd5b5061019c610197366004610445565b610213565b005b3480156101aa57600080fd5b506101b361038b565b6040516101c091906104ba565b60405180910390f35b600080600080600085875af190508061020e576040517f90b8ec1800000000000000000000000000000000000000000000000000000000815260040160405180910390fd5b505050565b600054610100900460ff168061022c575060005460ff16155b6102b8576040517f08c379a000000000000000000000000000000000000000000000000000000000815260206004820152602e60248201527f496e697469616c697a61626c653a20636f6e747261637420697320616c72656160448201527f647920696e697469616c697a65640000000000000000000000000000000000006064820152608401610097565b600054610100900460ff161580156102f757600080547fffffffffffffffffffffffffffffffffffffffffffffffffffffffffffff0000166101011790555b60005b8281101561035757600184848381811061031657610316610613565b83546001810185556000948552602090942060609091029290920192919091019050610342828261065e565b5050808061034f906105ab565b9150506102fa565b50801561020e57600080547fffffffffffffffffffffffffffffffffffffffffffffffffffffffffffff00ff169055505050565b60606001805480602002602001604051908101604052809291908181526020016000905b8282101561043c576000848152602090819020604080516060810182529185015473ffffffffffffffffffffffffffffffffffffffff8116835263ffffffff740100000000000000000000000000000000000000008204811684860152780100000000000000000000000000000000000000000000000090910416908201528252600190920191016103af565b50505050905090565b6000806020838503121561045857600080fd5b823567ffffffffffffffff8082111561047057600080fd5b818501915085601f83011261048457600080fd5b81358181111561049357600080fd5b8660206060830285010111156104a857600080fd5b60209290920196919550909350505050565b602080825282518282018190526000919060409081850190868401855b82811015610526578151805173ffffffffffffffffffffffffffffffffffffffff1685528681015163ffffffff90811688870152908601511685850152606090930192908501906001016104d7565b5091979650505050505050565b600082610569577f4e487b7100000000000000000000000000000000000000000000000000000000600052601260045260246000fd5b500490565b6000817fffffffffffffffffffffffffffffffffffffffffffffffffffffffffffffffff04831182151516156105a6576105a66105e4565b500290565b60007fffffffffffffffffffffffffffffffffffffffffffffffffffffffffffffffff8214156105dd576105dd6105e4565b5060010190565b7f4e487b7100000000000000000000000000000000000000000000000000000000600052601160045260246000fd5b7f4e487b7100000000000000000000000000000000000000000000000000000000600052603260045260246000fd5b6000813563ffffffff8116811461065857600080fd5b92915050565b813573ffffffffffffffffffffffffffffffffffffffff811680821461068357600080fd5b82549150807fffffffffffffffffffffffff0000000000000000000000000000000000000000831617835577ffffffff00000000000000000000000000000000000000006106d360208601610642565b60a01b1680827fffffffffffffffff0000000000000000000000000000000000000000000000008516171784557bffffffff00000000000000000000000000000000000000000000000061072960408701610642565b60c01b167fffffffff00000000ffffffffffffffffffffffffffffffffffffffffffffffff83167fffffffff000000000000000000000000000000000000000000000000000000008516178217178455505050505056fea26469706673582212203d407b0694c51753497fe60abd9fa71cb1bb29fe9154db00a45131ce460a3d8664736f6c63430008060033",
  "linkReferences": {},
  "deployedLinkReferences": {}
}